:100000000C9434000C943E000C9440000C943E0080
:100010000C943E000C943E000C943E000C943E0068
:100020000C943E000C943E000C943E000C943E0058
:100030000C943E000C943E000C943E000C943E0048
:100040000C943E000C943E000C943E000C943E0038
:100050000C943E000C943E000C943E000C943E0028
:100060000C943E000C943E0011241FBECFEFD8E04C
:10007000DEBFCDBF0E944D000C946E000C940000BA
:100080008F938FB78F939F938BB192E089278BB912
:100090009F918F918FBF8F91189553988BB18091BD
:1000A000690080916900817080936900E99A8FB737
:1000B00080688FBF219A2FEF83ED90E3215080401D
:1000C0009040E1F700C000002FEF83ED90E3215056
:1000D00080409040E1F700C00000EDCFF894FFCFE2
:00000001FF
